{
  "contractName": "Odeon",
  "abi": [
    {
      "constant": true,
      "inputs": [],
      "name": "active",
      "outputs": [
        {
          "name": "",
          "type": "bool"
        }
      ],
      "payable": false,
      "stateMutability": "view",
      "type": "function"
    },
    {
      "constant": true,
      "inputs": [],
      "name": "name",
      "outputs": [
        {
          "name": "",
          "type": "string"
        }
      ],
      "payable": false,
      "stateMutability": "view",
      "type": "function"
    },
    {
      "constant": false,
      "inputs": [
        {
          "name": "_spender",
          "type": "address"
        },
        {
          "name": "_value",
          "type": "uint256"
        }
      ],
      "name": "approve",
      "outputs": [
        {
          "name": "success",
          "type": "bool"
        }
      ],
      "payable": false,
      "stateMutability": "nonpayable",
      "type": "function"
    },
    {
      "constant": true,
      "inputs": [],
      "name": "totalSupply",
      "outputs": [
        {
          "name": "",
          "type": "uint256"
        }
      ],
      "payable": false,
      "stateMutability": "view",
      "type": "function"
    },
    {
      "constant": false,
      "inputs": [
        {
          "name": "_from",
          "type": "address"
        },
        {
          "name": "_to",
          "type": "address"
        },
        {
          "name": "_value",
          "type": "uint256"
        }
      ],
      "name": "transferFrom",
      "outputs": [
        {
          "name": "success",
          "type": "bool"
        }
      ],
      "payable": false,
      "stateMutability": "nonpayable",
      "type": "function"
    },
    {
      "constant": true,
      "inputs": [],
      "name": "decimals",
      "outputs": [
        {
          "name": "",
          "type": "uint8"
        }
      ],
      "payable": false,
      "stateMutability": "view",
      "type": "function"
    },
    {
      "constant": false,
      "inputs": [
        {
          "name": "_spender",
          "type": "address"
        },
        {
          "name": "_subtractedValue",
          "type": "uint256"
        }
      ],
      "name": "decreaseApproval",
      "outputs": [
        {
          "name": "success",
          "type": "bool"
        }
      ],
      "payable": false,
      "stateMutability": "nonpayable",
      "type": "function"
    },
    {
      "constant": true,
      "inputs": [
        {
          "name": "",
          "type": "address"
        }
      ],
      "name": "balanceOf",
      "outputs": [
        {
          "name": "",
          "type": "uint256"
        }
      ],
      "payable": false,
      "stateMutability": "view",
      "type": "function"
    },
    {
      "constant": false,
      "inputs": [
        {
          "name": "_tokenHolder",
          "type": "address"
        }
      ],
      "name": "collectReward",
      "outputs": [],
      "payable": false,
      "stateMutability": "nonpayable",
      "type": "function"
    },
    {
      "constant": true,
      "inputs": [],
      "name": "owner",
      "outputs": [
        {
          "name": "",
          "type": "address"
        }
      ],
      "payable": false,
      "stateMutability": "view",
      "type": "function"
    },
    {
      "constant": true,
      "inputs": [],
      "name": "symbol",
      "outputs": [
        {
          "name": "",
          "type": "string"
        }
      ],
      "payable": false,
      "stateMutability": "view",
      "type": "function"
    },
    {
      "constant": false,
      "inputs": [
        {
          "name": "_to",
          "type": "address"
        },
        {
          "name": "_value",
          "type": "uint256"
        }
      ],
      "name": "transfer",
      "outputs": [
        {
          "name": "success",
          "type": "bool"
        }
      ],
      "payable": false,
      "stateMutability": "nonpayable",
      "type": "function"
    },
    {
      "constant": true,
      "inputs": [],
      "name": "rewardPerDayWei",
      "outputs": [
        {
          "name": "",
          "type": "uint256"
        }
      ],
      "payable": false,
      "stateMutability": "view",
      "type": "function"
    },
    {
      "constant": false,
      "inputs": [
        {
          "name": "_spender",
          "type": "address"
        },
        {
          "name": "_addedValue",
          "type": "uint256"
        }
      ],
      "name": "increaseApproval",
      "outputs": [
        {
          "name": "success",
          "type": "bool"
        }
      ],
      "payable": false,
      "stateMutability": "nonpayable",
      "type": "function"
    },
    {
      "constant": false,
      "inputs": [],
      "name": "emergencyLock",
      "outputs": [],
      "payable": false,
      "stateMutability": "nonpayable",
      "type": "function"
    },
    {
      "constant": true,
      "inputs": [
        {
          "name": "",
          "type": "address"
        },
        {
          "name": "",
          "type": "address"
        }
      ],
      "name": "allowance",
      "outputs": [
        {
          "name": "",
          "type": "uint256"
        }
      ],
      "payable": false,
      "stateMutability": "view",
      "type": "function"
    },
    {
      "constant": true,
      "inputs": [
        {
          "name": "_tokenHolder",
          "type": "address"
        }
      ],
      "name": "getRewardValue",
      "outputs": [
        {
          "name": "",
          "type": "uint256"
        }
      ],
      "payable": false,
      "stateMutability": "view",
      "type": "function"
    },
    {
      "inputs": [
        {
          "name": "_totalSupply",
          "type": "uint256"
        },
        {
          "name": "loyaltyReward",
          "type": "uint256"
        }
      ],
      "payable": false,
      "stateMutability": "nonpayable",
      "type": "constructor"
    },
    {
      "payable": true,
      "stateMutability": "payable",
      "type": "fallback"
    },
    {
      "anonymous": false,
      "inputs": [
        {
          "indexed": true,
          "name": "from",
          "type": "address"
        },
        {
          "indexed": true,
          "name": "to",
          "type": "address"
        },
        {
          "indexed": false,
          "name": "value",
          "type": "uint256"
        }
      ],
      "name": "Transfer",
      "type": "event"
    },
    {
      "anonymous": false,
      "inputs": [
        {
          "indexed": true,
          "name": "_owner",
          "type": "address"
        },
        {
          "indexed": true,
          "name": "_spender",
          "type": "address"
        },
        {
          "indexed": false,
          "name": "_value",
          "type": "uint256"
        }
      ],
      "name": "Approval",
      "type": "event"
    }
  ],
  "bytecode": "0x60806040523480156200001157600080fd5b5060405160408062001f6083398101806040528101908080519060200190929190805190602001909291905050508181336000806101000a81548173ffffffffffffffffffffffffffffffffffffffff021916908373ffffffffffffffffffffffffffffffffffffffff1602179055506040805190810160405280601281526020017f4f64656f6e204d696e696e6720546f6b656e000000000000000000000000000081525060049080519060200190620000ce92919062000308565b506040805190810160405280600381526020017f4f4d540000000000000000000000000000000000000000000000000000000000815250600590805190602001906200011c92919062000308565b506012600660006101000a81548160ff021916908360ff160217905550816003819055506200016581600354620002eb6401000000000262001aee179091906401000000009004565b600160008060009054906101000a900473ffffffffffffffffffffffffffffffffffffffff1673ffffffffffffffffffffffffffffffffffffffff1673ffffffffffffffffffffffffffffffffffffffff1681526020019081526020016000208190555080600160003073ffffffffffffffffffffffffffffffffffffffff1673ffffffffffffffffffffffffffffffffffffffff1681526020019081526020016000208190555080600260003073ffffffffffffffffffffffffffffffffffffffff1673ffffffffffffffffffffffffffffffffffffffff16815260200190815260200160002060008060009054906101000a900473ffffffffffffffffffffffffffffffffffffffff1673ffffffffffffffffffffffffffffffffffffffff1673ffffffffffffffffffffffffffffffffffffffff1681526020019081526020016000208190555050506001600960006101000a81548160ff02191690831515021790555065958187cbcc0060088190555062015180600a819055505050620003b7565b6000828211151515620002fd57600080fd5b818303905092915050565b828054600181600116156101000203166002900490600052602060002090601f016020900481019282601f106200034b57805160ff19168380011785556200037c565b828001600101855582156200037c579182015b828111156200037b5782518255916020019190600101906200035e565b5b5090506200038b91906200038f565b5090565b620003b491905b80821115620003b057600081600090555060010162000396565b5090565b90565b611b9980620003c76000396000f3006080604052600436106100f1576000357c0100000000000000000000000000000000000000000000000000000000900463ffffffff16806302fb0c5e1461012657806306fdde0314610155578063095ea7b3146101e557806318160ddd1461024a57806323b872dd14610275578063313ce567146102fa578063661884631461032b57806370a082311461039057806382c97b8d146103e75780638da5cb5b1461042a57806395d89b4114610481578063a9059cbb14610511578063d3c47eb614610576578063d73dd623146105a1578063d9c693cb14610606578063dd62ed3e1461061d578063e004746d14610694575b60003414151561010057600080fd5b600960009054906101000a900460ff16151561011b57600080fd5b610124336106eb565b005b34801561013257600080fd5b5061013b610baf565b604051808215151515815260200191505060405180910390f35b34801561016157600080fd5b5061016a610bc2565b6040518080602001828103825283818151815260200191508051906020019080838360005b838110156101aa57808201518184015260208101905061018f565b50505050905090810190601f1680156101d75780820380516001836020036101000a031916815260200191505b509250505060405180910390f35b3480156101f157600080fd5b50610230600480360381019080803573ffffffffffffffffffffffffffffffffffffffff16906020019092919080359060200190929190505050610c60565b604051808215151515815260200191505060405180910390f35b34801561025657600080fd5b5061025f610d52565b6040518082815260200191505060405180910390f35b34801561028157600080fd5b506102e0600480360381019080803573ffffffffffffffffffffffffffffffffffffffff169060200190929190803573ffffffffffffffffffffffffffffffffffffffff16906020019092919080359060200190929190505050610d58565b604051808215151515815260200191505060405180910390f35b34801561030657600080fd5b5061030f61108b565b604051808260ff1660ff16815260200191505060405180910390f35b34801561033757600080fd5b50610376600480360381019080803573ffffffffffffffffffffffffffffffffffffffff1690602001909291908035906020019092919050505061109e565b604051808215151515815260200191505060405180910390f35b34801561039c57600080fd5b506103d1600480360381019080803573ffffffffffffffffffffffffffffffffffffffff16906020019092919050505061132f565b6040518082815260200191505060405180910390f35b3480156103f357600080fd5b50610428600480360381019080803573ffffffffffffffffffffffffffffffffffffffff169060200190929190505050611347565b005b34801561043657600080fd5b5061043f61136e565b604051808273ffffffffffffffffffffffffffffffffffffffff1673ffffffffffffffffffffffffffffffffffffffff16815260200191505060405180910390f35b34801561048d57600080fd5b50610496611393565b6040518080602001828103825283818151815260200191508051906020019080838360005b838110156104d65780820151818401526020810190506104bb565b50505050905090810190601f1680156105035780820380516001836020036101000a031916815260200191505b509250505060405180910390f35b34801561051d57600080fd5b5061055c600480360381019080803573ffffffffffffffffffffffffffffffffffffffff16906020019092919080359060200190929190505050611431565b604051808215151515815260200191505060405180910390f35b34801561058257600080fd5b5061058b611654565b6040518082815260200191505060405180910390f35b3480156105ad57600080fd5b506105ec600480360381019080803573ffffffffffffffffffffffffffffffffffffffff1690602001909291908035906020019092919050505061165a565b604051808215151515815260200191505060405180910390f35b34801561061257600080fd5b5061061b611856565b005b34801561062957600080fd5b5061067e600480360381019080803573ffffffffffffffffffffffffffffffffffffffff169060200190929190803573ffffffffffffffffffffffffffffffffffffffff169060200190929190505050611937565b6040518082815260200191505060405180910390f35b3480156106a057600080fd5b506106d5600480360381019080803573ffffffffffffffffffffffffffffffffffffffff16906020019092919050505061195c565b6040518082815260200191505060405180910390f35b60008060008060008060009054906101000a900473ffffffffffffffffffffffffffffffffffffffff1673ffffffffffffffffffffffffffffffffffffffff168673ffffffffffffffffffffffffffffffffffffffff161415801561077c57503073ffffffffffffffffffffffffffffffffffffffff168673ffffffffffffffffffffffffffffffffffffffff1614155b15610ba757600760008773ffffffffffffffffffffffffffffffffffffffff1673ffffffffffffffffffffffffffffffffffffffff16815260200190815260200160002054945060008514156108155742600760008873ffffffffffffffffffffffffffffffffffffffff1673ffffffffffffffffffffffffffffffffffffffff16815260200190815260200160002081905550610ba6565b600a5461082b8642611aee90919063ffffffff16565b81151561083457fe5b04935061085e61084f600a5486611b0a90919063ffffffff16565b86611b4090919063ffffffff16565b600760008873ffffffffffffffffffffffffffffffffffffffff1673ffffffffffffffffffffffffffffffffffffffff168152602001908152602001600020819055506000841115610ba557600160008773ffffffffffffffffffffffffffffffffffffffff1673ffffffffffffffffffffffffffffffffffffffff168152602001908152602001600020549250670de0b6b3a764000061091c8461090e87600854611b0a90919063ffffffff16565b611b0a90919063ffffffff16565b81151561092557fe5b049150600160003073ffffffffffffffffffffffffffffffffffffffff1673ffffffffffffffffffffffffffffffffffffffff16815260200190815260200160002054905080821115610a92576000600960006101000a81548160ff0219169083151502179055506000600160003073ffffffffffffffffffffffffffffffffffffffff1673ffffffffffffffffffffffffffffffffffffffff168152602001908152602001600020819055506109e58184611b4090919063ffffffff16565b600160008873ffffffffffffffffffffffffffffffffffffffff1673ffffffffffffffffffffffffffffffffffffffff168152602001908152602001600020819055508573ffffffffffffffffffffffffffffffffffffffff163073ffffffffffffffffffffffffffffffffffffffff167fddf252ad1be2c89b69c2b068fc378daa952ba7f163c4a11628f55a4df523b3ef836040518082815260200191505060405180910390a3610ba4565b610aa58282611aee90919063ffffffff16565b600160003073ffffffffffffffffffffffffffffffffffffffff1673ffffffffffffffffffffffffffffffffffffffff16815260200190815260200160002081905550610afb8284611b4090919063ffffffff16565b600160008873ffffffffffffffffffffffffffffffffffffffff1673ffffffffffffffffffffffffffffffffffffffff168152602001908152602001600020819055508573ffffffffffffffffffffffffffffffffffffffff163073ffffffffffffffffffffffffffffffffffffffff167fddf252ad1be2c89b69c2b068fc378daa952ba7f163c4a11628f55a4df523b3ef846040518082815260200191505060405180910390a35b5b5b5b505050505050565b600960009054906101000a900460ff1681565b60048054600181600116156101000203166002900480601f016020809104026020016040519081016040528092919081815260200182805460018160011615610100020316600290048015610c585780601f10610c2d57610100808354040283529160200191610c58565b820191906000526020600020905b815481529060010190602001808311610c3b57829003601f168201915b505050505081565b600081600260003373ffffffffffffffffffffffffffffffffffffffff1673ffffffffffffffffffffffffffffffffffffffff16815260200190815260200160002060008573ffffffffffffffffffffffffffffffffffffffff1673ffffffffffffffffffffffffffffffffffffffff168152602001908152602001600020819055508273ffffffffffffffffffffffffffffffffffffffff163373ffffffffffffffffffffffffffffffffffffffff167f8c5be1e5ebec7d5bd14f71427d1e84f3dd0314c0f7b2291e5b200ac8c7c3b925846040518082815260200191505060405180910390a36001905092915050565b60035481565b6000808373ffffffffffffffffffffffffffffffffffffffff1614151515610d7f57600080fd5b3073ffffffffffffffffffffffffffffffffffffffff168373ffffffffffffffffffffffffffffffffffffffff1614151515610dba57600080fd5b600960009054906101000a900460ff1615610de257610dd8846106eb565b610de1836106eb565b5b610e3482600160008673ffffffffffffffffffffffffffffffffffffffff1673ffffffffffffffffffffffffffffffffffffffff16815260200190815260200160002054611b4090919063ffffffff16565b600160008573ffffffffffffffffffffffffffffffffffffffff1673ffffffffffffffffffffffffffffffffffffffff16815260200190815260200160002081905550610ec982600160008773ffffffffffffffffffffffffffffffffffffffff1673ffffffffffffffffffffffffffffffffffffffff16815260200190815260200160002054611aee90919063ffffffff16565b600160008673ffffffffffffffffffffffffffffffffffffffff1673ffffffffffffffffffffffffffffffffffffffff16815260200190815260200160002081905550610f9b82600260008773ffffffffffffffffffffffffffffffffffffffff1673ffffffffffffffffffffffffffffffffffffffff16815260200190815260200160002060003373ffffffffffffffffffffffffffffffffffffffff1673ffffffffffffffffffffffffffffffffffffffff16815260200190815260200160002054611aee90919063ffffffff16565b600260008673ffffffffffffffffffffffffffffffffffffffff1673ffffffffffffffffffffffffffffffffffffffff16815260200190815260200160002060003373ffffffffffffffffffffffffffffffffffffffff1673ffffffffffffffffffffffffffffffffffffffff168152602001908152602001600020819055508273ffffffffffffffffffffffffffffffffffffffff168473ffffffffffffffffffffffffffffffffffffffff167fddf252ad1be2c89b69c2b068fc378daa952ba7f163c4a11628f55a4df523b3ef846040518082815260200191505060405180910390a3600190509392505050565b600660009054906101000a900460ff1681565b600080600260003373ffffffffffffffffffffffffffffffffffffffff1673ffffffffffffffffffffffffffffffffffffffff16815260200190815260200160002060008573ffffffffffffffffffffffffffffffffffffffff1673ffffffffffffffffffffffffffffffffffffffff168152602001908152602001600020549050808311156111af576000600260003373ffffffffffffffffffffffffffffffffffffffff1673ffffffffffffffffffffffffffffffffffffffff16815260200190815260200160002060008673ffffffffffffffffffffffffffffffffffffffff1673ffffffffffffffffffffffffffffffffffffffff16815260200190815260200160002081905550611243565b6111c28382611aee90919063ffffffff16565b600260003373ffffffffffffffffffffffffffffffffffffffff1673ffffffffffffffffffffffffffffffffffffffff16815260200190815260200160002060008673ffffffffffffffffffffffffffffffffffffffff1673ffffffffffffffffffffffffffffffffffffffff168152602001908152602001600020819055505b8373ffffffffffffffffffffffffffffffffffffffff163373ffffffffffffffffffffffffffffffffffffffff167f8c5be1e5ebec7d5bd14f71427d1e84f3dd0314c0f7b2291e5b200ac8c7c3b925600260003373ffffffffffffffffffffffffffffffffffffffff1673ffffffffffffffffffffffffffffffffffffffff16815260200190815260200160002060008873ffffffffffffffffffffffffffffffffffffffff1673ffffffffffffffffffffffffffffffffffffffff168152602001908152602001600020546040518082815260200191505060405180910390a3600191505092915050565b60016020528060005260406000206000915090505481565b600960009054906101000a900460ff16151561136257600080fd5b61136b816106eb565b50565b6000809054906101000a900473ffffffffffffffffffffffffffffffffffffffff1681565b60058054600181600116156101000203166002900480601f0160208091040260200160405190810160405280929190818152602001828054600181600116156101000203166002900480156114295780601f106113fe57610100808354040283529160200191611429565b820191906000526020600020905b81548152906001019060200180831161140c57829003601f168201915b505050505081565b6000808373ffffffffffffffffffffffffffffffffffffffff161415151561145857600080fd5b3073ffffffffffffffffffffffffffffffffffffffff168373ffffffffffffffffffffffffffffffffffffffff161415151561149357600080fd5b600960009054906101000a900460ff16156114bb576114b1336106eb565b6114ba836106eb565b5b61150d82600160003373ffffffffffffffffffffffffffffffffffffffff1673ffffffffffffffffffffffffffffffffffffffff16815260200190815260200160002054611aee90919063ffffffff16565b600160003373ffffffffffffffffffffffffffffffffffffffff1673ffffffffffffffffffffffffffffffffffffffff168152602001908152602001600020819055506115a282600160008673ffffffffffffffffffffffffffffffffffffffff1673ffffffffffffffffffffffffffffffffffffffff16815260200190815260200160002054611b4090919063ffffffff16565b600160008573ffffffffffffffffffffffffffffffffffffffff1673ffffffffffffffffffffffffffffffffffffffff168152602001908152602001600020819055508273ffffffffffffffffffffffffffffffffffffffff163373ffffffffffffffffffffffffffffffffffffffff167fddf252ad1be2c89b69c2b068fc378daa952ba7f163c4a11628f55a4df523b3ef846040518082815260200191505060405180910390a36001905092915050565b60085481565b60006116eb82600260003373ffffffffffffffffffffffffffffffffffffffff1673ffffffffffffffffffffffffffffffffffffffff16815260200190815260200160002060008673ffffffffffffffffffffffffffffffffffffffff1673ffffffffffffffffffffffffffffffffffffffff16815260200190815260200160002054611b4090919063ffffffff16565b600260003373ffffffffffffffffffffffffffffffffffffffff1673ffffffffffffffffffffffffffffffffffffffff16815260200190815260200160002060008573ffffffffffffffffffffffffffffffffffffffff1673ffffffffffffffffffffffffffffffffffffffff168152602001908152602001600020819055508273ffffffffffffffffffffffffffffffffffffffff163373ffffffffffffffffffffffffffffffffffffffff167f8c5be1e5ebec7d5bd14f71427d1e84f3dd0314c0f7b2291e5b200ac8c7c3b925600260003373ffffffffffffffffffffffffffffffffffffffff1673ffffffffffffffffffffffffffffffffffffffff16815260200190815260200160002060008773ffffffffffffffffffffffffffffffffffffffff1673ffffffffffffffffffffffffffffffffffffffff168152602001908152602001600020546040518082815260200191505060405180910390a36001905092915050565b6000809054906101000a900473ffffffffffffffffffffffffffffffffffffffff1673ffffffffffffffffffffffffffffffffffffffff163373ffffffffffffffffffffffffffffffffffffffff1614151561191a576040517f08c379a00000000000000000000000000000000000000000000000000000000081526004018080602001828103825260168152602001807f6d73672e73656e6465722069736e2774206f776e65720000000000000000000081525060200191505060405180910390fd5b6000600960006101000a81548160ff021916908315150217905550565b6002602052816000526040600020602052806000526040600020600091509150505481565b600080600080600960009054906101000a900460ff1615156119815760009350611ae6565b6000809054906101000a900473ffffffffffffffffffffffffffffffffffffffff1673ffffffffffffffffffffffffffffffffffffffff168573ffffffffffffffffffffffffffffffffffffffff1614156119df5760009350611ae6565b600760008673ffffffffffffffffffffffffffffffffffffffff1673ffffffffffffffffffffffffffffffffffffffff1681526020019081526020016000205492506000831415611a335760009350611ae6565b600a54611a498442611aee90919063ffffffff16565b811515611a5257fe5b0491506000821115611ae157600160008673ffffffffffffffffffffffffffffffffffffffff1673ffffffffffffffffffffffffffffffffffffffff168152602001908152602001600020549050670de0b6b3a7640000611ad082611ac285600854611b0a90919063ffffffff16565b611b0a90919063ffffffff16565b811515611ad957fe5b049350611ae6565b600093505b505050919050565b6000828211151515611aff57600080fd5b818303905092915050565b60008082840290506000841480611b2b5750828482811515611b2857fe5b04145b1515611b3657600080fd5b8091505092915050565b6000808284019050838110158015611b585750828110155b1515611b6357600080fd5b80915050929150505600a165627a7a723058203c4be9cb1de6a2c8de117fbffcb6b950332d10e93c09b10f7c59f14e6756d7f70029",
  "source": "pragma solidity 0.4.23;\n\n// Safe Math library that automatically checks for overflows and underflows\nlibrary SafeMath {\n    // Safe multiplication\n    function mul(uint256 a, uint256 b) internal pure returns (uint256) {\n        uint256 c = a * b;\n        require(a == 0 || c / a == b);\n        return c;\n    }\n    // Safe subtraction\n    function sub(uint256 a, uint256 b) internal pure returns (uint256) {\n        require(b <= a);\n        return a - b;\n    }\n    // Safe addition\n    function add(uint256 a, uint256 b) internal pure returns (uint256) {\n        uint256 c = a + b;\n        require(c>=a && c>=b);\n        return c;\n    }\n}\n\n/// @title Owned contract\n/// @author InnoChain\ncontract Owned {\n    address public owner;\n\n    modifier onlyOwner {\n        require(msg.sender == owner, \"msg.sender isn't owner\");\n        _;\n    }\n    constructor() public {\n        owner = msg.sender;\n    }\n}\n\n/// @title ERC20 Token contract\n/// @author InnoChain\n/// @notice Basic ERC20 functionality\ncontract Token is Owned {\n    using SafeMath for uint256;\n    \n    event Transfer(address indexed from, address indexed to, uint256 value);\n    event Approval(address indexed _owner, address indexed _spender, uint256 _value);\n\n    // This creates a mapping with all balances\n    mapping (address => uint256) public balanceOf;\n    // Another mapping with spending allowances\n    mapping (address => mapping (address => uint256)) public allowance;\n    // The total supply of the token\n    uint256 public totalSupply;\n    // variables for wallet integration\n    string public name;\n    string public symbol;\n    uint8 public decimals;\n\n    constructor(uint256 _totalSupply, uint256 loyaltyReward) public {\n        name = \"Odeon Mining Token\";\n        symbol = \"OMT\";\n        decimals = 18;\n        totalSupply = _totalSupply;\n        balanceOf[owner] = totalSupply.sub(loyaltyReward);\n        balanceOf[address(this)] = loyaltyReward;\n        // in case of the unlikely event that the tokens get locked inside the contract, the owner can withdraw the loyalty bonus tokens.\n        allowance[address(this)][owner] = loyaltyReward;\n    }\n\n    function transfer(address _to, uint256 _value) public returns (bool success) {\n        require(_to != 0x0);\n        require(_to != address(this));\n        balanceOf[msg.sender] = balanceOf[msg.sender].sub(_value);\n        balanceOf[_to] = balanceOf[_to].add(_value);\n        emit Transfer(msg.sender, _to, _value);\n        return true;\n    }\n\n    function transferFrom(address _from, address _to, uint256 _value) public returns (bool success) {\n        require(_to != 0x0);\n        require(_to != address(this));\n        balanceOf[_to] = balanceOf[_to].add(_value);\n        balanceOf[_from] = balanceOf[_from].sub(_value);\n        allowance[_from][msg.sender] = allowance[_from][msg.sender].sub(_value);\n        emit Transfer(_from, _to, _value);\n        return true;\n    }\n\n    function approve(address _spender, uint256 _value) public returns (bool success) {\n        allowance[msg.sender][_spender] = _value;\n        emit Approval(msg.sender, _spender, _value);\n        return true;\n    }\n    \n    function increaseApproval(address _spender, uint _addedValue) public returns (bool success) {\n        allowance[msg.sender][_spender] = allowance[msg.sender][_spender].add(_addedValue);\n        emit Approval(msg.sender, _spender, allowance[msg.sender][_spender]);\n        return true;\n    }\n    \n    function decreaseApproval(address _spender, uint _subtractedValue) public returns (bool success) {\n        uint256 oldValue = allowance[msg.sender][_spender];\n        if (_subtractedValue > oldValue) {\n            allowance[msg.sender][_spender] = 0;\n        } else {\n            allowance[msg.sender][_spender] = oldValue.sub(_subtractedValue);\n        }\n        emit Approval(msg.sender, _spender, allowance[msg.sender][_spender]);\n        return true;\n    }\n}\n\ncontract Loyalty is Token {\n\n    mapping(address => uint256) private timer;\n    uint256 public rewardPerDayWei;\n    bool public active;\n    uint256 private timePeriod;\n\n    constructor() public {\n        active = true;\n        // 6% per year\n        rewardPerDayWei = 164383561600000;\n        timePeriod = 1 days;\n    }\n\n    function update(address _tokenHolder) private {\n        // the owner and the contract itself are not allowed to participate in the loyalty reward\n        if (_tokenHolder != owner && _tokenHolder != address(this)) {\n            uint256 tempTimer = timer[_tokenHolder];\n            // initialize counter\n            if (tempTimer == 0) {\n                timer[_tokenHolder] = now;\n            } else {\n                // calculate number of days since last Loyalty reward withdrawal\n                uint256 dayCount = now.sub(tempTimer)/timePeriod;\n                // subtract number of days from timer\n                timer[_tokenHolder] = tempTimer.add(dayCount.mul(timePeriod));\n                // If number of days greater than 0, pay out loyalty reward\n                if (dayCount > 0) {\n                    // temporary variables for balance of tokenholder and contract and reward to save gas\n                    uint256 balance = balanceOf[_tokenHolder];\n                    // calculate token reward: daily token reward for one token * number of days * balance / 10^18\n                    uint256 reward = rewardPerDayWei.mul(dayCount).mul(balance)/(1 ether);\n                    uint256 contractBalance = balanceOf[address(this)];\n                    // if reward is smaller than contract Balance, pay out the rest of the tokens and set the active bool to false\n                    // else pay out reward and subtract it from the contract balance\n                    if (reward > contractBalance) {\n                        active = false;\n                        balanceOf[address(this)] = 0;\n                        balanceOf[_tokenHolder] = balance.add(contractBalance);\n                        emit Transfer(address(this), _tokenHolder, contractBalance);\n                    } else {\n                        balanceOf[address(this)] = contractBalance.sub(reward);\n                        balanceOf[_tokenHolder] = balance.add(reward);\n                        emit Transfer(address(this), _tokenHolder, reward);\n                    }\n                }\n            }\n        }\n    }\n\n    function getRewardValue(address _tokenHolder) public view returns (uint256) {\n        if (!active) {\n            return 0;\n        }\n        // the owner is not allowed to participate in the loyalty reward\n        if (_tokenHolder == owner) {\n            return 0;\n        } else {\n            uint256 tempTimer = timer[_tokenHolder];\n            // initialize counter\n            if (tempTimer == 0) {\n                return 0;\n            } else {\n                // calculate number of days since last Loyalty reward withdrawal\n                uint256 dayCount = now.sub(tempTimer)/timePeriod;\n                // If number of days greater than 0, pay out loyalty reward\n                if (dayCount > 0) {\n                    // temporary variables for balance of tokenholder and contract and reward to save gas\n                    uint256 balance = balanceOf[_tokenHolder];\n                    // calculate token reward: daily token reward for one token * number of days * balance / 10^18\n                    return rewardPerDayWei.mul(dayCount).mul(balance)/(1 ether);\n                } else {\n                    return 0;\n                }\n            }\n        }\n    }\n\n    /**\n    Emergency function: if the contract is locked due to a bug in the smart contract code, \n    the owner can deactivate the loyalty bonus so the token can function as usual\n     */\n    function emergencyLock() external onlyOwner {\n        active = false;        \n    }\n\n    // functions to collect the token reward\n    function collectReward(address _tokenHolder) public {\n        require(active);\n        update(_tokenHolder);\n    }\n    // use fallback function so tokenholders can withdraw the loyalty reward without having to call a function\n    function () public payable {\n        require(msg.value == 0);\n        require(active);\n        update(msg.sender);\n    }\n\n    // overwrite transfer and transferFrom functions\n    function transfer(address _to, uint256 _value) public returns (bool success) {\n        require(_to != 0x0);\n        require(_to != address(this));\n        // update and payout loyalty rewards during transfer\n        if (active) {\n            update(msg.sender);\n            update(_to);\n        }\n        balanceOf[msg.sender] = balanceOf[msg.sender].sub(_value);\n        balanceOf[_to] = balanceOf[_to].add(_value);\n        emit Transfer(msg.sender, _to, _value);\n        return true;\n    }\n\n    function transferFrom(address _from, address _to, uint256 _value) public returns (bool success) {\n        require(_to != 0x0);\n        require(_to != address(this));\n        // update and payout loyalty rewards during transfer\n        if (active) {\n            update(_from);\n            update(_to);\n        }\n        balanceOf[_to] = balanceOf[_to].add(_value);\n        balanceOf[_from] = balanceOf[_from].sub(_value);\n        allowance[_from][msg.sender] = allowance[_from][msg.sender].sub(_value);\n        emit Transfer(_from, _to, _value);\n        return true;\n    }\n\n}\n\ncontract Odeon is Loyalty {\n    constructor(uint256 _totalSupply, uint256 loyaltyReward) public Token(_totalSupply, loyaltyReward) {}\n}",
  "sourcePath": "/Users/gretzke/Documents/Projekte/InnoChain/ODEON Mining/ODEON MINING/contracts/Token.sol",
  "compiler": {
    "name": "solc",
    "version": "0.4.23+commit.124ca40d.Emscripten.clang"
  },
  "schemaVersion": "2.0.0",
  "updatedAt": "2018-05-27T11:56:51.252Z"
}