{
  "contractName": "OdeonToken",
  "abi": [
    {
      "constant": true,
      "inputs": [],
      "name": "name",
      "outputs": [
        {
          "name": "",
          "type": "string"
        }
      ],
      "payable": false,
      "stateMutability": "view",
      "type": "function"
    },
    {
      "constant": false,
      "inputs": [
        {
          "name": "_spender",
          "type": "address"
        },
        {
          "name": "_value",
          "type": "uint256"
        }
      ],
      "name": "approve",
      "outputs": [
        {
          "name": "success",
          "type": "bool"
        }
      ],
      "payable": false,
      "stateMutability": "nonpayable",
      "type": "function"
    },
    {
      "constant": false,
      "inputs": [
        {
          "name": "_period",
          "type": "uint256"
        }
      ],
      "name": "setPeriod",
      "outputs": [],
      "payable": false,
      "stateMutability": "nonpayable",
      "type": "function"
    },
    {
      "constant": true,
      "inputs": [],
      "name": "totalSupply",
      "outputs": [
        {
          "name": "",
          "type": "uint256"
        }
      ],
      "payable": false,
      "stateMutability": "view",
      "type": "function"
    },
    {
      "constant": false,
      "inputs": [
        {
          "name": "_from",
          "type": "address"
        },
        {
          "name": "_to",
          "type": "address"
        },
        {
          "name": "_value",
          "type": "uint256"
        }
      ],
      "name": "transferFrom",
      "outputs": [
        {
          "name": "success",
          "type": "bool"
        }
      ],
      "payable": false,
      "stateMutability": "nonpayable",
      "type": "function"
    },
    {
      "constant": true,
      "inputs": [
        {
          "name": "_client",
          "type": "address"
        }
      ],
      "name": "returnBalance",
      "outputs": [
        {
          "name": "",
          "type": "uint256"
        }
      ],
      "payable": false,
      "stateMutability": "view",
      "type": "function"
    },
    {
      "constant": true,
      "inputs": [],
      "name": "decimals",
      "outputs": [
        {
          "name": "",
          "type": "uint8"
        }
      ],
      "payable": false,
      "stateMutability": "view",
      "type": "function"
    },
    {
      "constant": false,
      "inputs": [],
      "name": "withdraw",
      "outputs": [],
      "payable": false,
      "stateMutability": "nonpayable",
      "type": "function"
    },
    {
      "constant": false,
      "inputs": [
        {
          "name": "_client",
          "type": "address"
        }
      ],
      "name": "updateBalance",
      "outputs": [
        {
          "name": "",
          "type": "bool"
        }
      ],
      "payable": false,
      "stateMutability": "nonpayable",
      "type": "function"
    },
    {
      "constant": false,
      "inputs": [
        {
          "name": "_value",
          "type": "uint256"
        }
      ],
      "name": "updateLatestPrice",
      "outputs": [],
      "payable": false,
      "stateMutability": "nonpayable",
      "type": "function"
    },
    {
      "constant": false,
      "inputs": [
        {
          "name": "_spender",
          "type": "address"
        },
        {
          "name": "_subtractedValue",
          "type": "uint256"
        }
      ],
      "name": "decreaseApproval",
      "outputs": [
        {
          "name": "success",
          "type": "bool"
        }
      ],
      "payable": false,
      "stateMutability": "nonpayable",
      "type": "function"
    },
    {
      "constant": true,
      "inputs": [
        {
          "name": "",
          "type": "address"
        }
      ],
      "name": "balanceOf",
      "outputs": [
        {
          "name": "",
          "type": "uint256"
        }
      ],
      "payable": false,
      "stateMutability": "view",
      "type": "function"
    },
    {
      "constant": true,
      "inputs": [],
      "name": "owner",
      "outputs": [
        {
          "name": "",
          "type": "address"
        }
      ],
      "payable": false,
      "stateMutability": "view",
      "type": "function"
    },
    {
      "constant": false,
      "inputs": [
        {
          "name": "_value",
          "type": "uint256"
        }
      ],
      "name": "setPrice",
      "outputs": [],
      "payable": false,
      "stateMutability": "nonpayable",
      "type": "function"
    },
    {
      "constant": true,
      "inputs": [],
      "name": "symbol",
      "outputs": [
        {
          "name": "",
          "type": "string"
        }
      ],
      "payable": false,
      "stateMutability": "view",
      "type": "function"
    },
    {
      "constant": false,
      "inputs": [
        {
          "name": "_to",
          "type": "address"
        },
        {
          "name": "_value",
          "type": "uint256"
        }
      ],
      "name": "transfer",
      "outputs": [
        {
          "name": "success",
          "type": "bool"
        }
      ],
      "payable": false,
      "stateMutability": "nonpayable",
      "type": "function"
    },
    {
      "constant": false,
      "inputs": [
        {
          "name": "_spender",
          "type": "address"
        },
        {
          "name": "_addedValue",
          "type": "uint256"
        }
      ],
      "name": "increaseApproval",
      "outputs": [
        {
          "name": "success",
          "type": "bool"
        }
      ],
      "payable": false,
      "stateMutability": "nonpayable",
      "type": "function"
    },
    {
      "constant": true,
      "inputs": [
        {
          "name": "",
          "type": "address"
        },
        {
          "name": "",
          "type": "address"
        }
      ],
      "name": "allowance",
      "outputs": [
        {
          "name": "",
          "type": "uint256"
        }
      ],
      "payable": false,
      "stateMutability": "view",
      "type": "function"
    },
    {
      "constant": true,
      "inputs": [
        {
          "name": "",
          "type": "address"
        }
      ],
      "name": "balance",
      "outputs": [
        {
          "name": "",
          "type": "uint256"
        }
      ],
      "payable": false,
      "stateMutability": "view",
      "type": "function"
    },
    {
      "inputs": [
        {
          "name": "_totalSupply",
          "type": "uint256"
        },
        {
          "name": "_price",
          "type": "uint256"
        },
        {
          "name": "_period",
          "type": "uint256"
        }
      ],
      "payable": false,
      "stateMutability": "nonpayable",
      "type": "constructor"
    },
    {
      "anonymous": false,
      "inputs": [
        {
          "indexed": true,
          "name": "from",
          "type": "address"
        },
        {
          "indexed": true,
          "name": "to",
          "type": "address"
        },
        {
          "indexed": false,
          "name": "value",
          "type": "uint256"
        }
      ],
      "name": "Transfer",
      "type": "event"
    },
    {
      "anonymous": false,
      "inputs": [
        {
          "indexed": true,
          "name": "_owner",
          "type": "address"
        },
        {
          "indexed": true,
          "name": "_spender",
          "type": "address"
        },
        {
          "indexed": false,
          "name": "_value",
          "type": "uint256"
        }
      ],
      "name": "Approval",
      "type": "event"
    }
  ],
  "bytecode": "0x60806040523480156200001157600080fd5b5060405160608062002233833981018060405281019080805190602001909291908051906020019092919080519060200190929190505050818184336000806101000a81548173ffffffffffffffffffffffffffffffffffffffff021916908373ffffffffffffffffffffffffffffffffffffffff1602179055506040805190810160405280601281526020017f4f64656f6e204d696e696e6720546f6b656e000000000000000000000000000081525060049080519060200190620000d9929190620002f0565b506040805190810160405280600381526020017f4f4d5400000000000000000000000000000000000000000000000000000000008152506005908051906020019062000127929190620002f0565b506012600660006101000a81548160ff021916908360ff16021790555080600381905550600354600160008060009054906101000a900473ffffffffffffffffffffffffffffffffffffffff1673ffffffffffffffffffffffffffffffffffffffff1673ffffffffffffffffffffffffffffffffffffffff1681526020019081526020016000208190555050620001cd82620001df640100000000026401000000009004565b80600c8190555050505050506200039f565b6000809054906101000a900473ffffffffffffffffffffffffffffffffffffffff1673ffffffffffffffffffffffffffffffffffffffff163373ffffffffffffffffffffffffffffffffffffffff16141515620002a4576040517f08c379a00000000000000000000000000000000000000000000000000000000081526004018080602001828103825260168152602001807f6d73672e73656e6465722069736e2774206f776e65720000000000000000000081525060200191505060405180910390fd5b600a81908060018154018082558091505090600182039060005260206000200160009091929091909150555042600b6000600a8054905081526020019081526020016000208190555050565b828054600181600116156101000203166002900490600052602060002090601f016020900481019282601f106200033357805160ff191683800117855562000364565b8280016001018555821562000364579182015b828111156200036357825182559160200191906001019062000346565b5b50905062000373919062000377565b5090565b6200039c91905b80821115620003985760008160009055506001016200037e565b5090565b90565b611e8480620003af6000396000f300608060405260043610610107576000357c0100000000000000000000000000000000000000000000000000000000900463ffffffff16806306fdde031461010c578063095ea7b31461019c5780630f3a9f651461020157806318160ddd1461022e57806323b872dd14610259578063264b2b8e146102de578063313ce567146103355780633ccfd60b1461036657806340b8405a1461037d5780634a56d394146103d8578063661884631461040557806370a082311461046a5780638da5cb5b146104c157806391b7f5ed1461051857806395d89b4114610545578063a9059cbb146105d5578063d73dd6231461063a578063dd62ed3e1461069f578063e3d670d714610716575b600080fd5b34801561011857600080fd5b5061012161076d565b6040518080602001828103825283818151815260200191508051906020019080838360005b83811015610161578082015181840152602081019050610146565b50505050905090810190601f16801561018e5780820380516001836020036101000a031916815260200191505b509250505060405180910390f35b3480156101a857600080fd5b506101e7600480360381019080803573ffffffffffffffffffffffffffffffffffffffff1690602001909291908035906020019092919050505061080b565b604051808215151515815260200191505060405180910390f35b34801561020d57600080fd5b5061022c600480360381019080803590602001909291905050506108fd565b005b34801561023a57600080fd5b506102436109cb565b6040518082815260200191505060405180910390f35b34801561026557600080fd5b506102c4600480360381019080803573ffffffffffffffffffffffffffffffffffffffff169060200190929190803573ffffffffffffffffffffffffffffffffffffffff169060200190929190803590602001909291905050506109d1565b604051808215151515815260200191505060405180910390f35b3480156102ea57600080fd5b5061031f600480360381019080803573ffffffffffffffffffffffffffffffffffffffff169060200190929190505050610ced565b6040518082815260200191505060405180910390f35b34801561034157600080fd5b5061034a610fba565b604051808260ff1660ff16815260200191505060405180910390f35b34801561037257600080fd5b5061037b610fcd565b005b34801561038957600080fd5b506103be600480360381019080803573ffffffffffffffffffffffffffffffffffffffff169060200190929190505050611014565b604051808215151515815260200191505060405180910390f35b3480156103e457600080fd5b506104036004803603810190808035906020019092919050505061141b565b005b34801561041157600080fd5b50610450600480360381019080803573ffffffffffffffffffffffffffffffffffffffff16906020019092919080359060200190929190505050611518565b604051808215151515815260200191505060405180910390f35b34801561047657600080fd5b506104ab600480360381019080803573ffffffffffffffffffffffffffffffffffffffff1690602001909291905050506117a9565b6040518082815260200191505060405180910390f35b3480156104cd57600080fd5b506104d66117c1565b604051808273ffffffffffffffffffffffffffffffffffffffff1673ffffffffffffffffffffffffffffffffffffffff16815260200191505060405180910390f35b34801561052457600080fd5b50610543600480360381019080803590602001909291905050506117e6565b005b34801561055157600080fd5b5061055a6118f6565b6040518080602001828103825283818151815260200191508051906020019080838360005b8381101561059a57808201518184015260208101905061057f565b50505050905090810190601f1680156105c75780820380516001836020036101000a031916815260200191505b509250505060405180910390f35b3480156105e157600080fd5b50610620600480360381019080803573ffffffffffffffffffffffffffffffffffffffff16906020019092919080359060200190929190505050611994565b604051808215151515815260200191505060405180910390f35b34801561064657600080fd5b50610685600480360381019080803573ffffffffffffffffffffffffffffffffffffffff16906020019092919080359060200190929190505050611ba0565b604051808215151515815260200191505060405180910390f35b3480156106ab57600080fd5b50610700600480360381019080803573ffffffffffffffffffffffffffffffffffffffff169060200190929190803573ffffffffffffffffffffffffffffffffffffffff169060200190929190505050611d9c565b6040518082815260200191505060405180910390f35b34801561072257600080fd5b50610757600480360381019080803573ffffffffffffffffffffffffffffffffffffffff169060200190929190505050611dc1565b6040518082815260200191505060405180910390f35b60048054600181600116156101000203166002900480601f0160208091040260200160405190810160405280929190818152602001828054600181600116156101000203166002900480156108035780601f106107d857610100808354040283529160200191610803565b820191906000526020600020905b8154815290600101906020018083116107e657829003601f168201915b505050505081565b600081600260003373ffffffffffffffffffffffffffffffffffffffff1673ffffffffffffffffffffffffffffffffffffffff16815260200190815260200160002060008573ffffffffffffffffffffffffffffffffffffffff1673ffffffffffffffffffffffffffffffffffffffff168152602001908152602001600020819055508273ffffffffffffffffffffffffffffffffffffffff163373ffffffffffffffffffffffffffffffffffffffff167f8c5be1e5ebec7d5bd14f71427d1e84f3dd0314c0f7b2291e5b200ac8c7c3b925846040518082815260200191505060405180910390a36001905092915050565b6000809054906101000a900473ffffffffffffffffffffffffffffffffffffffff1673ffffffffffffffffffffffffffffffffffffffff163373ffffffffffffffffffffffffffffffffffffffff161415156109c1576040517f08c379a00000000000000000000000000000000000000000000000000000000081526004018080602001828103825260168152602001807f6d73672e73656e6465722069736e2774206f776e65720000000000000000000081525060200191505060405180910390fd5b80600c8190555050565b60035481565b6000808373ffffffffffffffffffffffffffffffffffffffff1614158015610a2557503073ffffffffffffffffffffffffffffffffffffffff168373ffffffffffffffffffffffffffffffffffffffff1614155b1515610a3057600080fd5b610a3984611014565b50610a4383611014565b50610a9682600160008673ffffffffffffffffffffffffffffffffffffffff1673ffffffffffffffffffffffffffffffffffffffff16815260200190815260200160002054611dd990919063ffffffff16565b600160008573ffffffffffffffffffffffffffffffffffffffff1673ffffffffffffffffffffffffffffffffffffffff16815260200190815260200160002081905550610b2b82600160008773ffffffffffffffffffffffffffffffffffffffff1673ffffffffffffffffffffffffffffffffffffffff16815260200190815260200160002054611e0690919063ffffffff16565b600160008673ffffffffffffffffffffffffffffffffffffffff1673ffffffffffffffffffffffffffffffffffffffff16815260200190815260200160002081905550610bfd82600260008773ffffffffffffffffffffffffffffffffffffffff1673ffffffffffffffffffffffffffffffffffffffff16815260200190815260200160002060003373ffffffffffffffffffffffffffffffffffffffff1673ffffffffffffffffffffffffffffffffffffffff16815260200190815260200160002054611e0690919063ffffffff16565b600260008673ffffffffffffffffffffffffffffffffffffffff1673ffffffffffffffffffffffffffffffffffffffff16815260200190815260200160002060003373ffffffffffffffffffffffffffffffffffffffff1673ffffffffffffffffffffffffffffffffffffffff168152602001908152602001600020819055508273ffffffffffffffffffffffffffffffffffffffff168473ffffffffffffffffffffffffffffffffffffffff167fddf252ad1be2c89b69c2b068fc378daa952ba7f163c4a11628f55a4df523b3ef846040518082815260200191505060405180910390a3600190509392505050565b6000806000806000806000600860008973ffffffffffffffffffffffffffffffffffffffff1673ffffffffffffffffffffffffffffffffffffffff1681526020019081526020016000205495506000861415610d4c5760009650610faf565b600960008973ffffffffffffffffffffffffffffffffffffffff1673ffffffffffffffffffffffffffffffffffffffff168152602001908152602001600020549450600160008973ffffffffffffffffffffffffffffffffffffffff1673ffffffffffffffffffffffffffffffffffffffff168152602001908152602001600020549350600c54610de68642611e0690919063ffffffff16565b101515610fab57600760008973ffffffffffffffffffffffffffffffffffffffff1673ffffffffffffffffffffffffffffffffffffffff1681526020019081526020016000205492505b600a80549050861015610f225762015180610e7a86600b6000610e5d60018c611dd990919063ffffffff16565b815260200190815260200160002054611e0690919063ffffffff16565b811515610e8357fe5b049150610eae610e9f6201518084611e2290919063ffffffff16565b86611dd990919063ffffffff16565b9450610f13610f04610ef5600a610ecf60018b611e0690919063ffffffff16565b815481101515610edb57fe5b906000526020600020015487611e2290919063ffffffff16565b84611e2290919063ffffffff16565b84611dd990919063ffffffff16565b92508580600101965050610e30565b62015180610f398642611e0690919063ffffffff16565b811515610f4257fe5b049050610fa8610f99610f8a600a610f6460018b611e0690919063ffffffff16565b815481101515610f7057fe5b906000526020600020015487611e2290919063ffffffff16565b83611e2290919063ffffffff16565b84611dd990919063ffffffff16565b93505b8396505b505050505050919050565b600660009054906101000a900460ff1681565b6000600760003373ffffffffffffffffffffffffffffffffffffffff1673ffffffffffffffffffffffffffffffffffffffff16815260200190815260200160002081905550565b6000806000806000806000600860008973ffffffffffffffffffffffffffffffffffffffff1673ffffffffffffffffffffffffffffffffffffffff168152602001908152602001600020549550600086141561110057600a80549050600860008a73ffffffffffffffffffffffffffffffffffffffff1673ffffffffffffffffffffffffffffffffffffffff1681526020019081526020016000208190555042600960008a73ffffffffffffffffffffffffffffffffffffffff1673ffffffffffffffffffffffffffffffffffffffff1681526020019081526020016000208190555060019650611410565b600960008973ffffffffffffffffffffffffffffffffffffffff1673ffffffffffffffffffffffffffffffffffffffff168152602001908152602001600020549450600c546111588642611e0690919063ffffffff16565b10151561140b57600160008973ffffffffffffffffffffffffffffffffffffffff1673ffffffffffffffffffffffffffffffffffffffff168152602001908152602001600020549350600760008973ffffffffffffffffffffffffffffffffffffffff1673ffffffffffffffffffffffffffffffffffffffff1681526020019081526020016000205492505b600a805490508610156112d6576201518061122e86600b600061121160018c611dd990919063ffffffff16565b815260200190815260200160002054611e0690919063ffffffff16565b81151561123757fe5b0491506112626112536201518084611e2290919063ffffffff16565b86611dd990919063ffffffff16565b94506112c76112b86112a9600a61128360018b611e0690919063ffffffff16565b81548110151561128f57fe5b906000526020600020015487611e2290919063ffffffff16565b84611e2290919063ffffffff16565b84611dd990919063ffffffff16565b925085806001019650506111e4565b620151806112ed8642611e0690919063ffffffff16565b8115156112f657fe5b0490506113216113126201518083611e2290919063ffffffff16565b86611dd990919063ffffffff16565b600960008a73ffffffffffffffffffffffffffffffffffffffff1673ffffffffffffffffffffffffffffffffffffffff168152602001908152602001600020819055506113c76113b86113a9600a61138360018b611e0690919063ffffffff16565b81548110151561138f57fe5b906000526020600020015487611e2290919063ffffffff16565b83611e2290919063ffffffff16565b84611dd990919063ffffffff16565b600760008a73ffffffffffffffffffffffffffffffffffffffff1673ffffffffffffffffffffffffffffffffffffffff168152602001908152602001600020819055505b600196505b505050505050919050565b6000809054906101000a900473ffffffffffffffffffffffffffffffffffffffff1673ffffffffffffffffffffffffffffffffffffffff163373ffffffffffffffffffffffffffffffffffffffff161415156114df576040517f08c379a00000000000000000000000000000000000000000000000000000000081526004018080602001828103825260168152602001807f6d73672e73656e6465722069736e2774206f776e65720000000000000000000081525060200191505060405180910390fd5b80600a6114fb6001600a80549050611e0690919063ffffffff16565b81548110151561150757fe5b906000526020600020018190555050565b600080600260003373ffffffffffffffffffffffffffffffffffffffff1673ffffffffffffffffffffffffffffffffffffffff16815260200190815260200160002060008573ffffffffffffffffffffffffffffffffffffffff1673ffffffffffffffffffffffffffffffffffffffff16815260200190815260200160002054905080831115611629576000600260003373ffffffffffffffffffffffffffffffffffffffff1673ffffffffffffffffffffffffffffffffffffffff16815260200190815260200160002060008673ffffffffffffffffffffffffffffffffffffffff1673ffffffffffffffffffffffffffffffffffffffff168152602001908152602001600020819055506116bd565b61163c8382611e0690919063ffffffff16565b600260003373ffffffffffffffffffffffffffffffffffffffff1673ffffffffffffffffffffffffffffffffffffffff16815260200190815260200160002060008673ffffffffffffffffffffffffffffffffffffffff1673ffffffffffffffffffffffffffffffffffffffff168152602001908152602001600020819055505b8373ffffffffffffffffffffffffffffffffffffffff163373ffffffffffffffffffffffffffffffffffffffff167f8c5be1e5ebec7d5bd14f71427d1e84f3dd0314c0f7b2291e5b200ac8c7c3b925600260003373ffffffffffffffffffffffffffffffffffffffff1673ffffffffffffffffffffffffffffffffffffffff16815260200190815260200160002060008873ffffffffffffffffffffffffffffffffffffffff1673ffffffffffffffffffffffffffffffffffffffff168152602001908152602001600020546040518082815260200191505060405180910390a3600191505092915050565b60016020528060005260406000206000915090505481565b6000809054906101000a900473ffffffffffffffffffffffffffffffffffffffff1681565b6000809054906101000a900473ffffffffffffffffffffffffffffffffffffffff1673ffffffffffffffffffffffffffffffffffffffff163373ffffffffffffffffffffffffffffffffffffffff161415156118aa576040517f08c379a00000000000000000000000000000000000000000000000000000000081526004018080602001828103825260168152602001807f6d73672e73656e6465722069736e2774206f776e65720000000000000000000081525060200191505060405180910390fd5b600a81908060018154018082558091505090600182039060005260206000200160009091929091909150555042600b6000600a8054905081526020019081526020016000208190555050565b60058054600181600116156101000203166002900480601f01602080910402602001604051908101604052809291908181526020018280546001816001161561010002031660029004801561198c5780601f106119615761010080835404028352916020019161198c565b820191906000526020600020905b81548152906001019060200180831161196f57829003601f168201915b505050505081565b6000808373ffffffffffffffffffffffffffffffffffffffff16141580156119e857503073ffffffffffffffffffffffffffffffffffffffff168373ffffffffffffffffffffffffffffffffffffffff1614155b15156119f357600080fd5b6119fc33611014565b50611a0683611014565b50611a5982600160003373ffffffffffffffffffffffffffffffffffffffff1673ffffffffffffffffffffffffffffffffffffffff16815260200190815260200160002054611e0690919063ffffffff16565b600160003373ffffffffffffffffffffffffffffffffffffffff1673ffffffffffffffffffffffffffffffffffffffff16815260200190815260200160002081905550611aee82600160008673ffffffffffffffffffffffffffffffffffffffff1673ffffffffffffffffffffffffffffffffffffffff16815260200190815260200160002054611dd990919063ffffffff16565b600160008573ffffffffffffffffffffffffffffffffffffffff1673ffffffffffffffffffffffffffffffffffffffff168152602001908152602001600020819055508273ffffffffffffffffffffffffffffffffffffffff163373ffffffffffffffffffffffffffffffffffffffff167fddf252ad1be2c89b69c2b068fc378daa952ba7f163c4a11628f55a4df523b3ef846040518082815260200191505060405180910390a36001905092915050565b6000611c3182600260003373ffffffffffffffffffffffffffffffffffffffff1673ffffffffffffffffffffffffffffffffffffffff16815260200190815260200160002060008673ffffffffffffffffffffffffffffffffffffffff1673ffffffffffffffffffffffffffffffffffffffff16815260200190815260200160002054611dd990919063ffffffff16565b600260003373ffffffffffffffffffffffffffffffffffffffff1673ffffffffffffffffffffffffffffffffffffffff16815260200190815260200160002060008573ffffffffffffffffffffffffffffffffffffffff1673ffffffffffffffffffffffffffffffffffffffff168152602001908152602001600020819055508273ffffffffffffffffffffffffffffffffffffffff163373ffffffffffffffffffffffffffffffffffffffff167f8c5be1e5ebec7d5bd14f71427d1e84f3dd0314c0f7b2291e5b200ac8c7c3b925600260003373ffffffffffffffffffffffffffffffffffffffff1673ffffffffffffffffffffffffffffffffffffffff16815260200190815260200160002060008773ffffffffffffffffffffffffffffffffffffffff1673ffffffffffffffffffffffffffffffffffffffff168152602001908152602001600020546040518082815260200191505060405180910390a36001905092915050565b6002602052816000526040600020602052806000526040600020600091509150505481565b60076020528060005260406000206000915090505481565b6000808284019050838110158015611df15750828110155b1515611dfc57600080fd5b8091505092915050565b6000828211151515611e1757600080fd5b818303905092915050565b60008082840290506000841480611e435750828482811515611e4057fe5b04145b1515611e4e57600080fd5b80915050929150505600a165627a7a72305820c43763b665cb4d626a0e68a2cf306b4c5d4a4a333cdfcbf10a7327c7ee7cda320029",
  "source": "pragma solidity 0.4.23;\n\n// Safe Math library that automatically checks for overflows and underflows\nlibrary SafeMath {\n    // Safe multiplication\n    function mul(uint256 a, uint256 b) internal pure returns (uint256) {\n        uint256 c = a * b;\n        require(a == 0 || c / a == b);\n        return c;\n    }\n    // Safe subtraction\n    function sub(uint256 a, uint256 b) internal pure returns (uint256) {\n        require(b <= a);\n        return a - b;\n    }\n    // Safe addition\n    function add(uint256 a, uint256 b) internal pure returns (uint256) {\n        uint256 c = a + b;\n        require(c>=a && c>=b);\n        return c;\n    }\n}\n\n/// @title Owned contract\n/// @author InnoChain\ncontract Owned {\n    address public owner;\n\n    modifier onlyOwner {\n        require(msg.sender == owner, \"msg.sender isn't owner\");\n        _;\n    }\n    constructor() public {\n        owner = msg.sender;\n    }\n}\n\n/// @title ERC20 Token contract\n/// @author InnoChain\n/// @notice Basic ERC20 functionality\ncontract Token is Owned {\n    using SafeMath for uint256;\n    \n    event Transfer(address indexed from, address indexed to, uint256 value);\n    event Approval(address indexed _owner, address indexed _spender, uint256 _value);\n\n    // This creates a mapping with all balances\n    mapping (address => uint256) public balanceOf;\n    // Another mapping with spending allowances\n    mapping (address => mapping (address => uint256)) public allowance;\n    // The total supply of the token\n    uint256 public totalSupply;\n    // variables for wallet integration\n    string public name;\n    string public symbol;\n    uint8 public decimals;\n\n    constructor(uint256 _totalSupply) public {\n        name = \"Odeon Mining Token\";\n        symbol = \"OMT\";\n        decimals = 18;\n        totalSupply = _totalSupply;\n        balanceOf[owner] = totalSupply;\n    }\n\n    function transfer(address _to, uint256 _value) public returns (bool success) {\n        require(_to != 0x0);\n        require(_to != address(this));\n        balanceOf[msg.sender] = balanceOf[msg.sender].sub(_value);\n        balanceOf[_to] = balanceOf[_to].add(_value);\n        emit Transfer(msg.sender, _to, _value);\n        return true;\n    }\n\n    function transferFrom(address _from, address _to, uint256 _value) public returns (bool success) {\n        require(_to != 0x0);\n        require(_to != address(this));\n        balanceOf[_to] = balanceOf[_to].add(_value);\n        balanceOf[_from] = balanceOf[_from].sub(_value);\n        allowance[_from][msg.sender] = allowance[_from][msg.sender].sub(_value);\n        emit Transfer(_from, _to, _value);\n        return true;\n    }\n\n    function approve(address _spender, uint256 _value) public returns (bool success) {\n        allowance[msg.sender][_spender] = _value;\n        emit Approval(msg.sender, _spender, _value);\n        return true;\n    }\n    \n    function increaseApproval(address _spender, uint _addedValue) public returns (bool success) {\n        allowance[msg.sender][_spender] = allowance[msg.sender][_spender].add(_addedValue);\n        emit Approval(msg.sender, _spender, allowance[msg.sender][_spender]);\n        return true;\n    }\n    \n    function decreaseApproval(address _spender, uint _subtractedValue) public returns (bool success) {\n        uint256 oldValue = allowance[msg.sender][_spender];\n        if (_subtractedValue > oldValue) {\n            allowance[msg.sender][_spender] = 0;\n        } else {\n            allowance[msg.sender][_spender] = oldValue.sub(_subtractedValue);\n        }\n        emit Approval(msg.sender, _spender, allowance[msg.sender][_spender]);\n        return true;\n    }\n}\n\ncontract ODEON is Token {\n\n    mapping(address => uint256) public balance;\n    mapping(address => uint256) private priceIndex;\n    // mapping(address => uint256) dayCount;\n    mapping(address => uint256) timer;\n\n    uint256[] pricePerDay;\n    mapping(uint256 => uint256) priceTimeStamp;\n\n    uint256 period;\n\n    constructor(uint256 _price, uint256 _period) public {\n        setPrice(_price);\n        period = _period;\n    }\n\n    function updateBalance(address _client) public returns (bool) {\n        uint256 currentIndex = priceIndex[_client];\n        // if current index is not set, inits the timer and the priceIndex\n        if (currentIndex == 0) {\n            priceIndex[_client] = pricePerDay.length;\n            timer[_client] = now;\n            return true;\n        }\n        // updates average balance once a day at most\n        // using memory variables to save gas\n        uint256 tempTimer = timer[_client];\n        if (now.sub(tempTimer) >= period) {\n            uint256 tokenBalance = balanceOf[_client];\n            uint256 tempBalance = balance[_client];\n            // skips if account is at newest price, if not updates balances for previous prices with the priceTimeStamp variable\n            for (currentIndex; currentIndex < pricePerDay.length; currentIndex++) {\n                uint256 tempDay = priceTimeStamp[currentIndex.add(1)].sub(tempTimer)/(1 days);\n                tempTimer = tempTimer.add(tempDay.mul(1 days));\n                tempBalance = tempBalance.add(tempDay.mul(tokenBalance.mul(pricePerDay[currentIndex.sub(1)])));\n            }\n\n            uint256 day = now.sub(tempTimer)/(1 days);\n            timer[_client] = tempTimer.add(day.mul(1 days));\n            // updates balance according to latest price\n            balance[_client] = tempBalance.add(day.mul(tokenBalance.mul(pricePerDay[currentIndex.sub(1)])));\n        }\n        return true;\n    }\n\n    function returnBalance(address _client) public view returns (uint256) {\n        uint256 currentIndex = priceIndex[_client];\n        // if current index is not set, inits the timer and the priceIndex\n        if (currentIndex == 0) {\n            return 0;\n        }\n        // updates average balance once a day at most\n        // using memory variables to save gas\n        uint256 tempTimer = timer[_client];\n        uint256 tokenBalance = balanceOf[_client];\n        if (now.sub(tempTimer) >= period) {\n            uint256 tempBalance = balance[_client];\n            // skips if account is at newest price, if not updates balances for previous prices with the priceTimeStamp variable\n            for (currentIndex; currentIndex < pricePerDay.length; currentIndex++) {\n                uint256 tempDay = priceTimeStamp[currentIndex.add(1)].sub(tempTimer)/(1 days);\n                tempTimer = tempTimer.add(tempDay.mul(1 days));\n                tempBalance = tempBalance.add(tempDay.mul(tokenBalance.mul(pricePerDay[currentIndex.sub(1)])));\n            }\n\n            uint256 day = now.sub(tempTimer)/(1 days);\n            // updates balance according to latest price\n            tokenBalance = tempBalance.add(day.mul(tokenBalance.mul(pricePerDay[currentIndex.sub(1)])));\n        }\n        return tokenBalance;\n\n    }\n\n    function withdraw() public {\n        balance[msg.sender] = 0;\n    }\n\n    function setPrice(uint256 _value) public onlyOwner {\n        pricePerDay.push(_value);\n        priceTimeStamp[pricePerDay.length] = now;\n    }\n\n    function updateLatestPrice(uint256 _value) public onlyOwner {\n        pricePerDay[pricePerDay.length.sub(1)] = _value;\n    }\n\n    function setPeriod(uint256 _period) public onlyOwner {\n        period = _period;\n    }\n\n    // Overwrite transfer and transferFrom\n    function transfer(address _to, uint256 _value) public returns (bool success) {\n        require(_to != 0x0 && _to != address(this));\n        updateBalance(msg.sender);\n        updateBalance(_to);\n        balanceOf[msg.sender] = balanceOf[msg.sender].sub(_value);\n        balanceOf[_to] = balanceOf[_to].add(_value);\n        emit Transfer(msg.sender, _to, _value);\n        return true;\n    }\n\n    function transferFrom(address _from, address _to, uint256 _value) public returns (bool success) {\n        require(_to != 0x0 && _to != address(this));\n        updateBalance(_from);\n        updateBalance(_to);\n        balanceOf[_to] = balanceOf[_to].add(_value);\n        balanceOf[_from] = balanceOf[_from].sub(_value);\n        allowance[_from][msg.sender] = allowance[_from][msg.sender].sub(_value);\n        emit Transfer(_from, _to, _value);\n        return true;\n    }\n}\n\ncontract OdeonToken is ODEON {\n    constructor(uint256 _totalSupply, uint256 _price, uint256 _period) public Token(_totalSupply) ODEON(_price, _period) {}\n}",
  "sourcePath": "/Users/gretzke/Documents/Projekte/InnoChain/ODEON Mining/ODEON MINING/contracts/Token.sol",
  "compiler": {
    "name": "solc",
    "version": "0.4.23+commit.124ca40d.Emscripten.clang"
  },
  "schemaVersion": "2.0.0",
  "updatedAt": "2018-05-16T20:47:28.244Z"
}